{
  "abi": [
    {
      "type": "constructor",
      "inputs": [],
      "stateMutability": "nonpayable"
    },
    {
      "type": "function",
      "name": "candidatesList",
      "inputs": [
        {
          "name": "",
          "type": "uint256",
          "internalType": "uint256"
        }
      ],
      "outputs": [
        {
          "name": "candidateID",
          "type": "uint256",
          "internalType": "uint256"
        },
        {
          "name": "candidateName",
          "type": "string",
          "internalType": "string"
        },
        {
          "name": "registeredAddress",
          "type": "address",
          "internalType": "address"
        },
        {
          "name": "totalVotesReceived",
          "type": "uint8",
          "internalType": "uint8"
        },
        {
          "name": "votesReceivedRegular",
          "type": "uint8",
          "internalType": "uint8"
        },
        {
          "name": "votesReceivedVip",
          "type": "uint8",
          "internalType": "uint8"
        },
        {
          "name": "votesReceivedExecutive",
          "type": "uint8",
          "internalType": "uint8"
        },
        {
          "name": "receivedChairmansVote",
          "type": "bool",
          "internalType": "bool"
        }
      ],
      "stateMutability": "view"
    },
    {
      "type": "function",
      "name": "chairman",
      "inputs": [],
      "outputs": [
        {
          "name": "",
          "type": "address",
          "internalType": "address"
        }
      ],
      "stateMutability": "view"
    },
    {
      "type": "function",
      "name": "createCandidate",
      "inputs": [
        {
          "name": "_candidate_name",
          "type": "string",
          "internalType": "string"
        }
      ],
      "outputs": [],
      "stateMutability": "nonpayable"
    },
    {
      "type": "function",
      "name": "endVoting",
      "inputs": [],
      "outputs": [
        {
          "name": "",
          "type": "bool",
          "internalType": "bool"
        }
      ],
      "stateMutability": "nonpayable"
    },
    {
      "type": "function",
      "name": "getDuration",
      "inputs": [],
      "outputs": [
        {
          "name": "duration",
          "type": "uint256",
          "internalType": "uint256"
        }
      ],
      "stateMutability": "view"
    },
    {
      "type": "function",
      "name": "getTotalCandidate",
      "inputs": [],
      "outputs": [
        {
          "name": "_list",
          "type": "tuple[]",
          "internalType": "struct Voting.Candidate[]",
          "components": [
            {
              "name": "candidateID",
              "type": "uint256",
              "internalType": "uint256"
            },
            {
              "name": "candidateName",
              "type": "string",
              "internalType": "string"
            },
            {
              "name": "registeredAddress",
              "type": "address",
              "internalType": "address"
            },
            {
              "name": "totalVotesReceived",
              "type": "uint8",
              "internalType": "uint8"
            },
            {
              "name": "votesReceivedRegular",
              "type": "uint8",
              "internalType": "uint8"
            },
            {
              "name": "votesReceivedVip",
              "type": "uint8",
              "internalType": "uint8"
            },
            {
              "name": "votesReceivedExecutive",
              "type": "uint8",
              "internalType": "uint8"
            },
            {
              "name": "receivedChairmansVote",
              "type": "bool",
              "internalType": "bool"
            }
          ]
        }
      ],
      "stateMutability": "view"
    },
    {
      "type": "function",
      "name": "getTotalVoters",
      "inputs": [],
      "outputs": [
        {
          "name": "_list",
          "type": "tuple[]",
          "internalType": "struct Voting.Voter[]",
          "components": [
            {
              "name": "role",
              "type": "uint8",
              "internalType": "enum Voting.Role"
            },
            {
              "name": "hasVoted",
              "type": "bool",
              "internalType": "bool"
            },
            {
              "name": "registered",
              "type": "bool",
              "internalType": "bool"
            },
            {
              "name": "candidateChosen",
              "type": "uint256",
              "internalType": "uint256"
            },
            {
              "name": "registeredAddress",
              "type": "address",
              "internalType": "address"
            },
            {
              "name": "voterAddress",
              "type": "address",
              "internalType": "address"
            }
          ]
        }
      ],
      "stateMutability": "view"
    },
    {
      "type": "function",
      "name": "startVoting",
      "inputs": [],
      "outputs": [
        {
          "name": "",
          "type": "bool",
          "internalType": "bool"
        }
      ],
      "stateMutability": "nonpayable"
    },
    {
      "type": "function",
      "name": "toggleVoting",
      "inputs": [],
      "outputs": [],
      "stateMutability": "nonpayable"
    },
    {
      "type": "function",
      "name": "transferChairman",
      "inputs": [
        {
          "name": "_address",
          "type": "address",
          "internalType": "address"
        }
      ],
      "outputs": [],
      "stateMutability": "nonpayable"
    },
    {
      "type": "function",
      "name": "updateVoterRole",
      "inputs": [
        {
          "name": "_role_id",
          "type": "uint256",
          "internalType": "uint256"
        }
      ],
      "outputs": [],
      "stateMutability": "payable"
    },
    {
      "type": "function",
      "name": "voteCandidate",
      "inputs": [
        {
          "name": "_candidate_id",
          "type": "uint256",
          "internalType": "uint256"
        }
      ],
      "outputs": [
        {
          "name": "",
          "type": "bool",
          "internalType": "bool"
        }
      ],
      "stateMutability": "nonpayable"
    },
    {
      "type": "function",
      "name": "voted",
      "inputs": [
        {
          "name": "",
          "type": "address",
          "internalType": "address"
        }
      ],
      "outputs": [
        {
          "name": "",
          "type": "bool",
          "internalType": "bool"
        }
      ],
      "stateMutability": "view"
    },
    {
      "type": "function",
      "name": "voterRegistration",
      "inputs": [
        {
          "name": "_role_id",
          "type": "uint256",
          "internalType": "uint256"
        }
      ],
      "outputs": [],
      "stateMutability": "payable"
    },
    {
      "type": "function",
      "name": "voters",
      "inputs": [
        {
          "name": "",
          "type": "address",
          "internalType": "address"
        }
      ],
      "outputs": [
        {
          "name": "role",
          "type": "uint8",
          "internalType": "enum Voting.Role"
        },
        {
          "name": "hasVoted",
          "type": "bool",
          "internalType": "bool"
        },
        {
          "name": "registered",
          "type": "bool",
          "internalType": "bool"
        },
        {
          "name": "candidateChosen",
          "type": "uint256",
          "internalType": "uint256"
        },
        {
          "name": "registeredAddress",
          "type": "address",
          "internalType": "address"
        },
        {
          "name": "voterAddress",
          "type": "address",
          "internalType": "address"
        }
      ],
      "stateMutability": "view"
    },
    {
      "type": "function",
      "name": "votersData",
      "inputs": [
        {
          "name": "",
          "type": "uint256",
          "internalType": "uint256"
        }
      ],
      "outputs": [
        {
          "name": "role",
          "type": "uint8",
          "internalType": "enum Voting.Role"
        },
        {
          "name": "hasVoted",
          "type": "bool",
          "internalType": "bool"
        },
        {
          "name": "registered",
          "type": "bool",
          "internalType": "bool"
        },
        {
          "name": "candidateChosen",
          "type": "uint256",
          "internalType": "uint256"
        },
        {
          "name": "registeredAddress",
          "type": "address",
          "internalType": "address"
        },
        {
          "name": "voterAddress",
          "type": "address",
          "internalType": "address"
        }
      ],
      "stateMutability": "view"
    },
    {
      "type": "function",
      "name": "votingStarted",
      "inputs": [],
      "outputs": [
        {
          "name": "",
          "type": "bool",
          "internalType": "bool"
        }
      ],
      "stateMutability": "view"
    },
    {
      "type": "event",
      "name": "VoteReceived",
      "inputs": [
        {
          "name": "_address",
          "type": "address",
          "indexed": false,
          "internalType": "address"
        },
        {
          "name": "id",
          "type": "uint256",
          "indexed": false,
          "internalType": "uint256"
        }
      ],
      "anonymous": false
    }
  ],
  "bytecode": {
    "object": "0x6080604052348015600f57600080fd5b50600080546001600160a01b03191633179055611874806100316000396000f3fe6080604052600436106100fe5760003560e01c806387f7b97511610095578063ad2e8c9b11610064578063ad2e8c9b146102e5578063aec2ccae14610308578063c3403ddf14610338578063df2d5ec71461035a578063f5bdff441461038e57600080fd5b806387f7b975146101f35780638c08a4dc1461022b578063a3ec138d1461024b578063aae3bd47146102c157600080fd5b8063622d5f4e116100d1578063622d5f4e1461018257806364d198a114610195578063793cf218146101b757806383d948b7146101d957600080fd5b80630d3e8bea146101035780631ec6b60a1461011857806354981885146101425780635fba7a5614610162575b600080fd5b6101166101113660046112b7565b6103ae565b005b34801561012457600080fd5b5061012d61053a565b60405190151581526020015b60405180910390f35b34801561014e57600080fd5b5061011661015d3660046112d0565b610648565b34801561016e57600080fd5b5061011661017d366004611316565b61071d565b6101166101903660046112b7565b6108bc565b3480156101a157600080fd5b506101aa610ae9565b604051610139919061140d565b3480156101c357600080fd5b506101cc610c4f565b6040516101399190611520565b3480156101e557600080fd5b5060045461012d9060ff1681565b3480156101ff57600080fd5b50600054610213906001600160a01b031681565b6040516001600160a01b039091168152602001610139565b34801561023757600080fd5b5061012d6102463660046112b7565b610d26565b34801561025757600080fd5b506102af6102663660046112d0565b600660205260009081526040902080546001820154600283015460039093015460ff80841694610100850482169462010000900490911692916001600160a01b03918216911686565b604051610139969594939291906115b2565b3480156102cd57600080fd5b506101166004805460ff19811660ff90911615179055565b3480156102f157600080fd5b506102fa611114565b604051908152602001610139565b34801561031457600080fd5b5061012d6103233660046112d0565b60076020526000908152604090205460ff1681565b34801561034457600080fd5b506004805460ff1916905542600255600061012d565b34801561036657600080fd5b5061037a6103753660046112b7565b611129565b6040516101399897969594939291906115f4565b34801561039a57600080fd5b506102af6103a93660046112b7565b611225565b33600090815260066020526040808220815160c081019092528054829060ff1660038111156103df576103df6114e8565b60038111156103f0576103f06114e8565b8152815460ff61010082048116151560208401526201000090910416151560408201526001820154606082015260028201546001600160a01b0390811660808301526003928301541660a0909101529091508290811115610453576104536114e8565b81906003811115610466576104666114e8565b90816003811115610479576104796114e8565b90525060a08101516001600160a01b031660009081526006602052604090208151815483929190829060ff191660018360038111156104ba576104ba6114e8565b02179055506020820151815460408401511515620100000262ff000019921515610100029290921662ffff0019909116171781556060820151600182015560808201516002820180546001600160a01b039283166001600160a01b03199182161790915560a0909301516003909201805492909116919092161790555050565b600080546001600160a01b0316331461056e5760405162461bcd60e51b815260040161056590611652565b60405180910390fd5b3360009081526007602052604090205460ff16156105ce5760405162461bcd60e51b815260206004820152601c60248201527f596f75206861766520616c7265616479207265676973746572656421000000006044820152606401610565565b336000818152600660205260409020600201546001600160a01b0316146106315760405162461bcd60e51b8152602060048201526017602482015276596f7520617265206e6f7420726567697374657265642160481b6044820152606401610565565b506004805460ff1916600190811790915542815590565b6000546001600160a01b031633146106725760405162461bcd60e51b815260040161056590611652565b61067b8161127f565b6106d15760405162461bcd60e51b815260206004820152602160248201527f4f6e6c7920457865637574697665732063616e20626520612063686169726d616044820152603760f91b6064820152608401610565565b600080546001600160a01b03929092166001600160a01b03199092168217815590815260066020526040808220805460ff19908116600317909155338352912080549091166002179055565b6000546001600160a01b031633146107475760405162461bcd60e51b815260040161056590611652565b600554600090810361075b57506000610760565b506005545b60408051610100810182528281526020810184815233928201929092526000606082018190526080820181905260a0820181905260c0820181905260e08201819052600580546001810182559152815160039091027f036b6384b5eca791c62761152d0c79bb0604c104a5fb6f4eb0703f3154bb3db081019182559251919283927f036b6384b5eca791c62761152d0c79bb0604c104a5fb6f4eb0703f3154bb3db1909101906108109082611720565b50604082015160029190910180546060840151608085015160a086015160c087015160e0909701516001600160a01b039096166001600160a81b031990941693909317600160a01b60ff938416021761ffff60a81b1916600160a81b9183169190910260ff60b01b191617600160b01b928216929092029190911761ffff60b81b1916600160b81b919094160260ff60c01b191692909217600160c01b91151591909102179055505050565b3360009081526007602052604090205460ff161561091c5760405162461bcd60e51b815260206004820152601c60248201527f596f75206861766520616c7265616479207265676973746572656421000000006044820152606401610565565b6040805160c081018252600080825260208201819052918101829052606081018290526080810182905260a0810182905290546001600160a01b0316330361096757600381526109a3565b816003811115610979576109796114e8565b8190600381111561098c5761098c6114e8565b9081600381111561099f5761099f6114e8565b9052505b60006020808301829052606083018290523360808401819052825260069052604081206003908101546001600160a01b031660a084015280546001818101835592829052835160049091027fc2575a0e9e593c00f959f8c92f12db2869c3395a3b0502d05e2516446f71f85b01805485949193849260ff1990921691908490811115610a3157610a316114e8565b0217905550602082810151825460408086015162ffff00199092166101009315159390930262ff00001916929092176201000091151591909102178355606084015160018085019190915560808501516002850180546001600160a01b03199081166001600160a01b039384161790915560a090960151600395860180549097169116179094553360009081526006909252902083518154859492939192849260ff199092169184908111156104ba576104ba6114e8565b60606005805480602002602001604051908101604052809291908181526020016000905b82821015610c4657838290600052602060002090600302016040518061010001604052908160008201548152602001600182018054610b4b90611695565b80601f0160208091040260200160405190810160405280929190818152602001828054610b7790611695565b8015610bc45780601f10610b9957610100808354040283529160200191610bc4565b820191906000526020600020905b815481529060010190602001808311610ba757829003601f168201915b5050509183525050600291909101546001600160a01b03811660208084019190915260ff600160a01b830481166040850152600160a81b830481166060850152600160b01b830481166080850152600160b81b8304811660a0850152600160c01b909204909116151560c0909201919091529082526001929092019101610b0d565b50505050905090565b60606003805480602002602001604051908101604052809291908181526020016000905b82821015610c46576000848152602090206040805160c08101909152600484029091018054829060ff166003811115610cae57610cae6114e8565b6003811115610cbf57610cbf6114e8565b8152815460ff610100820481161515602080850191909152620100009092041615156040830152600180840154606084015260028401546001600160a01b03908116608085015260039094015490931660a090920191909152918352929092019101610c73565b3360009081526007602052604081205460ff1615610d995760405162461bcd60e51b815260206004820152602a60248201527f596f75206861766520616c726561647920766f74656420666f7220746869732060448201526963616e6469646174652160b01b6064820152608401610565565b336000818152600660205260409020600201546001600160a01b031614610dfc5760405162461bcd60e51b8152602060048201526017602482015276596f7520617265206e6f7420726567697374657265642160481b6044820152606401610565565b6005548210610e445760405162461bcd60e51b8152602060048201526014602482015273125b9d985b1a590818d85b991a59185d1948125160621b6044820152606401610565565b3360009081526006602052604090208054610100900460ff1615610eaa5760405162461bcd60e51b815260206004820152601760248201527f596f75206861766520616c726561647920766f7465642e0000000000000000006044820152606401610565565b80600101548303610f135760405162461bcd60e51b815260206004820152602d60248201527f596f752063616e6e6f7420766f746520666f72207468652073616d652063616e60448201526c3234b230ba329030b3b0b4b71760991b6064820152608401610565565b805461ff00191661010017815560018101839055600580546000919085908110610f3f57610f3f6117e0565b9060005260206000209060030201905060018160020160148282829054906101000a900460ff16610f70919061180c565b92506101000a81548160ff021916908360ff16021790555060006003811115610f9b57610f9b6114e8565b825460ff166003811115610fb157610fb16114e8565b03610ff05760018160020160158282829054906101000a900460ff16610fd7919061180c565b92506101000a81548160ff021916908360ff1602179055505b6001825460ff166003811115611008576110086114e8565b036110475760018160020160168282829054906101000a900460ff1661102e919061180c565b92506101000a81548160ff021916908360ff1602179055505b6002825460ff16600381111561105f5761105f6114e8565b0361109e5760018160020160178282829054906101000a900460ff16611085919061180c565b92506101000a81548160ff021916908360ff1602179055505b6003825460ff1660038111156110b6576110b66114e8565b036110d15760028101805460ff60c01b1916600160c01b1790555b60408051338152602081018690527f758ce7d2b09ac027fc94a1655219010aa7e53bbc780a4ff3161fa70fb2aa9151910160405180910390a15060019392505050565b600042600254611124919061182b565b905090565b6005818154811061113957600080fd5b6000918252602090912060039091020180546001820180549193509061115e90611695565b80601f016020809104026020016040519081016040528092919081815260200182805461118a90611695565b80156111d75780601f106111ac576101008083540402835291602001916111d7565b820191906000526020600020905b8154815290600101906020018083116111ba57829003601f168201915b505050600290930154919250506001600160a01b0381169060ff600160a01b8204811691600160a81b8104821691600160b01b8204811691600160b81b8104821691600160c01b9091041688565b6003818154811061123557600080fd5b6000918252602090912060049091020180546001820154600283015460039093015460ff808416955061010084048116946201000090940416926001600160a01b03908116911686565b6001600160a01b03811660009081526006602052604081206002815460ff1660038111156112af576112af6114e8565b149392505050565b6000602082840312156112c957600080fd5b5035919050565b6000602082840312156112e257600080fd5b81356001600160a01b03811681146112f957600080fd5b9392505050565b634e487b7160e01b600052604160045260246000fd5b60006020828403121561132857600080fd5b813567ffffffffffffffff8082111561134057600080fd5b818401915084601f83011261135457600080fd5b81358181111561136657611366611300565b604051601f8201601f19908116603f0116810190838211818310171561138e5761138e611300565b816040528281528760208487010111156113a757600080fd5b826020860160208301376000928101602001929092525095945050505050565b6000815180845260005b818110156113ed576020818501810151868301820152016113d1565b506000602082860101526020601f19601f83011685010191505092915050565b600060208083018184528085518083526040925060408601915060408160051b87010184880160005b838110156114da57603f1989840301855281516101008151855288820151818a870152611465828701826113c7565b838a01516001600160a01b0316878b015260608085015160ff1690880152608080850151919350915061149c8288018260ff169052565b505060a08281015160ff9081169187019190915260c0808401519091169086015260e091820151151591909401529386019390860190600101611436565b509098975050505050505050565b634e487b7160e01b600052602160045260246000fd5b6004811061151c57634e487b7160e01b600052602160045260246000fd5b9052565b602080825282518282018190526000919060409081850190868401855b828110156115a55781516115528582516114fe565b8087015115158588015285810151151586860152606080820151908601526080808201516001600160a01b039081169187019190915260a091820151169085015260c0909301929085019060010161153d565b5091979650505050505050565b60c081016115c082896114fe565b9515156020820152931515604085015260608401929092526001600160a01b0390811660808401521660a090910152919050565b60006101008a835280602084015261160e8184018b6113c7565b6001600160a01b03999099166040840152505060ff9586166060820152938516608085015291841660a084015290921660c082015290151560e09091015292915050565b60208082526023908201527f4f6e6c792063686169726d616e2063616e20706572666f726d206f706572617460408201526234b7b760e91b606082015260800190565b600181811c908216806116a957607f821691505b6020821081036116c957634e487b7160e01b600052602260045260246000fd5b50919050565b601f82111561171b576000816000526020600020601f850160051c810160208610156116f85750805b601f850160051c820191505b8181101561171757828155600101611704565b5050505b505050565b815167ffffffffffffffff81111561173a5761173a611300565b61174e816117488454611695565b846116cf565b602080601f831160018114611783576000841561176b5750858301515b600019600386901b1c1916600185901b178555611717565b600085815260208120601f198616915b828110156117b257888601518255948401946001909101908401611793565b50858210156117d05787850151600019600388901b60f8161c191681555b5050505050600190811b01905550565b634e487b7160e01b600052603260045260246000fd5b634e487b7160e01b600052601160045260246000fd5b60ff8181168382160190811115611825576118256117f6565b92915050565b81810381811115611825576118256117f656fea2646970667358221220ed9a16fea162c70edb06f46fa4400fda52c4db419a93b43e34177cf8e06789b764736f6c63430008190033",
    "linkReferences": {}
  },
  "methodIdentifiers": {
    "candidatesList(uint256)": "df2d5ec7",
    "chairman()": "87f7b975",
    "createCandidate(string)": "5fba7a56",
    "endVoting()": "c3403ddf",
    "getDuration()": "ad2e8c9b",
    "getTotalCandidate()": "64d198a1",
    "getTotalVoters()": "793cf218",
    "startVoting()": "1ec6b60a",
    "toggleVoting()": "aae3bd47",
    "transferChairman(address)": "54981885",
    "updateVoterRole(uint256)": "0d3e8bea",
    "voteCandidate(uint256)": "8c08a4dc",
    "voted(address)": "aec2ccae",
    "voterRegistration(uint256)": "622d5f4e",
    "voters(address)": "a3ec138d",
    "votersData(uint256)": "f5bdff44",
    "votingStarted()": "83d948b7"
  },
  "id": 20
}